{
  "contractName": "CardMarketplace",
  "abi": [
    {
      "inputs": [
        {
          "internalType": "address",
          "name": "userRegistryAddress",
          "type": "address"
        }
      ],
      "stateMutability": "nonpayable",
      "type": "constructor"
    },
    {
      "anonymous": false,
      "inputs": [
        {
          "indexed": false,
          "internalType": "uint256",
          "name": "cardId",
          "type": "uint256"
        },
        {
          "indexed": false,
          "internalType": "address",
          "name": "newOwner",
          "type": "address"
        },
        {
          "indexed": false,
          "internalType": "uint256",
          "name": "price",
          "type": "uint256"
        }
      ],
      "name": "CardBought",
      "type": "event"
    },
    {
      "anonymous": false,
      "inputs": [
        {
          "indexed": false,
          "internalType": "uint256",
          "name": "cardId",
          "type": "uint256"
        },
        {
          "indexed": false,
          "internalType": "string",
          "name": "name",
          "type": "string"
        },
        {
          "indexed": false,
          "internalType": "uint256",
          "name": "price",
          "type": "uint256"
        },
        {
          "indexed": false,
          "internalType": "address",
          "name": "owner",
          "type": "address"
        }
      ],
      "name": "CardCreated",
      "type": "event"
    },
    {
      "anonymous": false,
      "inputs": [
        {
          "indexed": false,
          "internalType": "uint256",
          "name": "cardId",
          "type": "uint256"
        }
      ],
      "name": "CardDelisted",
      "type": "event"
    },
    {
      "anonymous": false,
      "inputs": [
        {
          "indexed": false,
          "internalType": "uint256",
          "name": "cardId",
          "type": "uint256"
        },
        {
          "indexed": false,
          "internalType": "uint256",
          "name": "price",
          "type": "uint256"
        }
      ],
      "name": "CardListed",
      "type": "event"
    },
    {
      "anonymous": false,
      "inputs": [
        {
          "indexed": false,
          "internalType": "uint256",
          "name": "cardId",
          "type": "uint256"
        },
        {
          "indexed": false,
          "internalType": "uint256",
          "name": "oldPrice",
          "type": "uint256"
        },
        {
          "indexed": false,
          "internalType": "uint256",
          "name": "newPrice",
          "type": "uint256"
        }
      ],
      "name": "CardPriceUpdated",
      "type": "event"
    },
    {
      "anonymous": false,
      "inputs": [
        {
          "indexed": false,
          "internalType": "address",
          "name": "owner",
          "type": "address"
        },
        {
          "indexed": false,
          "internalType": "uint256",
          "name": "amount",
          "type": "uint256"
        }
      ],
      "name": "FundsWithdrawn",
      "type": "event"
    },
    {
      "inputs": [],
      "name": "FEE",
      "outputs": [
        {
          "internalType": "uint256",
          "name": "",
          "type": "uint256"
        }
      ],
      "stateMutability": "view",
      "type": "function",
      "constant": true
    },
    {
      "inputs": [],
      "name": "contractOwner",
      "outputs": [
        {
          "internalType": "address",
          "name": "",
          "type": "address"
        }
      ],
      "stateMutability": "view",
      "type": "function",
      "constant": true
    },
    {
      "inputs": [],
      "name": "getOwner",
      "outputs": [
        {
          "internalType": "address",
          "name": "",
          "type": "address"
        }
      ],
      "stateMutability": "view",
      "type": "function",
      "constant": true
    },
    {
      "inputs": [
        {
          "internalType": "string",
          "name": "name",
          "type": "string"
        },
        {
          "internalType": "string",
          "name": "ipfsHash",
          "type": "string"
        },
        {
          "internalType": "uint256",
          "name": "price",
          "type": "uint256"
        }
      ],
      "name": "createCard",
      "outputs": [],
      "stateMutability": "payable",
      "type": "function",
      "payable": true
    },
    {
      "inputs": [
        {
          "internalType": "uint256",
          "name": "cardId",
          "type": "uint256"
        },
        {
          "internalType": "uint256",
          "name": "price",
          "type": "uint256"
        }
      ],
      "name": "listCard",
      "outputs": [],
      "stateMutability": "nonpayable",
      "type": "function"
    },
    {
      "inputs": [
        {
          "internalType": "uint256",
          "name": "cardId",
          "type": "uint256"
        }
      ],
      "name": "buyCard",
      "outputs": [],
      "stateMutability": "payable",
      "type": "function",
      "payable": true
    },
    {
      "inputs": [
        {
          "internalType": "uint256",
          "name": "cardId",
          "type": "uint256"
        }
      ],
      "name": "delistCard",
      "outputs": [],
      "stateMutability": "payable",
      "type": "function",
      "payable": true
    },
    {
      "inputs": [
        {
          "internalType": "uint256",
          "name": "cardId",
          "type": "uint256"
        },
        {
          "internalType": "uint256",
          "name": "newPrice",
          "type": "uint256"
        }
      ],
      "name": "updateCardPrice",
      "outputs": [],
      "stateMutability": "nonpayable",
      "type": "function"
    },
    {
      "inputs": [],
      "name": "getTotalCards",
      "outputs": [
        {
          "internalType": "uint256",
          "name": "",
          "type": "uint256"
        }
      ],
      "stateMutability": "view",
      "type": "function",
      "constant": true
    },
    {
      "inputs": [
        {
          "internalType": "uint256",
          "name": "cardId",
          "type": "uint256"
        }
      ],
      "name": "getCard",
      "outputs": [
        {
          "internalType": "uint256",
          "name": "id",
          "type": "uint256"
        },
        {
          "internalType": "string",
          "name": "name",
          "type": "string"
        },
        {
          "internalType": "string",
          "name": "ipfsHash",
          "type": "string"
        },
        {
          "internalType": "uint256",
          "name": "price",
          "type": "uint256"
        },
        {
          "internalType": "address",
          "name": "owner",
          "type": "address"
        },
        {
          "internalType": "bool",
          "name": "isListed",
          "type": "bool"
        }
      ],
      "stateMutability": "view",
      "type": "function",
      "constant": true
    },
    {
      "inputs": [
        {
          "internalType": "uint256",
          "name": "cardId",
          "type": "uint256"
        }
      ],
      "name": "isCardListed",
      "outputs": [
        {
          "internalType": "bool",
          "name": "",
          "type": "bool"
        }
      ],
      "stateMutability": "view",
      "type": "function",
      "constant": true
    },
    {
      "inputs": [
        {
          "internalType": "uint256",
          "name": "cardId",
          "type": "uint256"
        }
      ],
      "name": "getCardOwner",
      "outputs": [
        {
          "internalType": "address",
          "name": "",
          "type": "address"
        }
      ],
      "stateMutability": "view",
      "type": "function",
      "constant": true
    },
    {
      "inputs": [
        {
          "internalType": "string",
          "name": "username",
          "type": "string"
        }
      ],
      "name": "getCardsByUsername",
      "outputs": [
        {
          "components": [
            {
              "internalType": "uint256",
              "name": "id",
              "type": "uint256"
            },
            {
              "internalType": "string",
              "name": "name",
              "type": "string"
            },
            {
              "internalType": "string",
              "name": "ipfsHash",
              "type": "string"
            },
            {
              "internalType": "uint256",
              "name": "price",
              "type": "uint256"
            },
            {
              "internalType": "address",
              "name": "owner",
              "type": "address"
            },
            {
              "internalType": "bool",
              "name": "isListed",
              "type": "bool"
            }
          ],
          "internalType": "struct CardMarketplace.Card[]",
          "name": "",
          "type": "tuple[]"
        }
      ],
      "stateMutability": "view",
      "type": "function",
      "constant": true
    },
    {
      "inputs": [],
      "name": "withdrawFunds",
      "outputs": [],
      "stateMutability": "nonpayable",
      "type": "function"
    }
  ],
  "bytecode": "0x60806040523480156200001157600080fd5b50604051620037d5380380620037d58339818101604052810190620000379190620000d7565b33600260006101000a81548173ffffffffffffffffffffffffffffffffffffffff021916908373ffffffffffffffffffffffffffffffffffffffff16021790555080600360006101000a81548173ffffffffffffffffffffffffffffffffffffffff021916908373ffffffffffffffffffffffffffffffffffffffff1602179055505062000151565b600081519050620000d18162000137565b92915050565b600060208284031215620000ea57600080fd5b6000620000fa84828501620000c0565b91505092915050565b6000620001108262000117565b9050919050565b600073ffffffffffffffffffffffffffffffffffffffff82169050919050565b620001428162000103565b81146200014e57600080fd5b50565b61367480620001616000396000f3fe6080604052600436106100dd5760003560e01c8063b8d2caee1161007f578063c70f5eaa11610059578063c70f5eaa14610297578063ce606ee0146102b3578063e2164aee146102de578063ed36c52f1461031b576100dd565b8063b8d2caee14610218578063bd91c96414610243578063c57981b51461026c576100dd565b806349dbcaab116100bb57806349dbcaab146101525780634c47eeaf1461018f578063893d20e8146101ab5780639188d312146101d6576100dd565b8063010abbd0146100e257806324600fc31461011f5780632d7c123014610136575b600080fd5b3480156100ee57600080fd5b5061010960048036038101906101049190612669565b610344565b6040516101169190612ef4565b60405180910390f35b34801561012b57600080fd5b506101346103d6565b005b610150600480360381019061014b9190612669565b6105db565b005b34801561015e57600080fd5b50610179600480360381019061017491906124fc565b6109c4565b6040516101869190612f38565b60405180910390f35b6101a960048036038101906101a491906125ea565b610f08565b005b3480156101b757600080fd5b506101c0611193565b6040516101cd9190612ef4565b60405180910390f35b3480156101e257600080fd5b506101fd60048036038101906101f89190612669565b6111bd565b60405161020f96959493929190613249565b60405180910390f35b34801561022457600080fd5b5061022d611418565b60405161023a91906131f7565b60405180910390f35b34801561024f57600080fd5b5061026a60048036038101906102659190612692565b611422565b005b34801561027857600080fd5b506102816117ae565b60405161028e91906131f7565b60405180910390f35b6102b160048036038101906102ac9190612669565b6117b9565b005b3480156102bf57600080fd5b506102c8611d95565b6040516102d59190612ef4565b60405180910390f35b3480156102ea57600080fd5b5061030560048036038101906103009190612669565b611dbb565b6040516103129190612f5a565b60405180910390f35b34801561032757600080fd5b50610342600480360381019061033d9190612692565b611e3a565b005b60008160008111801561035957506001548111155b610398576040517f08c379a000000000000000000000000000000000000000000000000000000000815260040161038f90613177565b60405180910390fd5b60008084815260200190815260200160002060040160009054906101000a900473ffffffffffffffffffffffffffffffffffffffff16915050919050565b600260009054906101000a900473ffffffffffffffffffffffffffffffffffffffff1673ffffffffffffffffffffffffffffffffffffffff163373ffffffffffffffffffffffffffffffffffffffff1614610466576040517f08c379a000000000000000000000000000000000000000000000000000000000815260040161045d90612f97565b60405180910390fd5b6000479050600081116104ae576040517f08c379a00000000000000000000000000000000000000000000000000000000081526004016104a590612ff7565b60405180910390fd5b6000600260009054906101000a900473ffffffffffffffffffffffffffffffffffffffff1673ffffffffffffffffffffffffffffffffffffffff16826040516104f690612edf565b60006040518083038185875af1925050503d8060008114610533576040519150601f19603f3d011682016040523d82523d6000602084013e610538565b606091505b505090508061057c576040517f08c379a0000000000000000000000000000000000000000000000000000000008152600401610573906131d7565b60405180910390fd5b7feaff4b37086828766ad3268786972c0cd24259d4c87a80f9d3963a3c3d999b0d600260009054906101000a900473ffffffffffffffffffffffffffffffffffffffff16836040516105cf929190612f0f565b60405180910390a15050565b806000811180156105ee57506001548111155b61062d576040517f08c379a000000000000000000000000000000000000000000000000000000000815260040161062490613177565b60405180910390fd5b6000600360009054906101000a900473ffffffffffffffffffffffffffffffffffffffff1673ffffffffffffffffffffffffffffffffffffffff16636f77926b60008085815260200190815260200160002060040160009054906101000a900473ffffffffffffffffffffffffffffffffffffffff166040518263ffffffff1660e01b81526004016106bf9190612ef4565b60006040518083038186803b1580156106d757600080fd5b505afa1580156106eb573d6000803e3d6000fd5b505050506040513d6000823e3d601f19601f82011682018060405250810190610714919061257e565b5090506000600360009054906101000a900473ffffffffffffffffffffffffffffffffffffffff1673ffffffffffffffffffffffffffffffffffffffff16636f77926b336040518263ffffffff1660e01b81526004016107749190612ef4565b60006040518083038186803b15801561078c57600080fd5b505afa1580156107a0573d6000803e3d6000fd5b505050506040513d6000823e3d601f19601f820116820180604052508101906107c9919061257e565b509050816040516020016107dd9190612ec8565b60405160208183030381529060405280519060200120816040516020016108049190612ec8565b604051602081830303815290604052805190602001201461085a576040517f08c379a000000000000000000000000000000000000000000000000000000000815260040161085190613057565b60405180910390fd5b8360008111801561086d57506001548111155b6108ac576040517f08c379a00000000000000000000000000000000000000000000000000000000081526004016108a390613177565b60405180910390fd5b660110d9316ec0003410156108f6576040517f08c379a00000000000000000000000000000000000000000000000000000000081526004016108ed906130b7565b60405180910390fd5b60008086815260200190815260200160002060040160149054906101000a900460ff16610958576040517f08c379a000000000000000000000000000000000000000000000000000000000815260040161094f90612fb7565b60405180910390fd5b600080600087815260200190815260200160002060040160146101000a81548160ff0219169083151502179055507f284ff637df1434fb3df1be536c67a4a65498b068eb5946fb93cddee1a3ad2101856040516109b591906131f7565b60405180910390a15050505050565b60606000600360009054906101000a900473ffffffffffffffffffffffffffffffffffffffff1673ffffffffffffffffffffffffffffffffffffffff16631ecc0041846040518263ffffffff1660e01b8152600401610a239190612f75565b60006040518083038186803b158015610a3b57600080fd5b505afa158015610a4f573d6000803e3d6000fd5b505050506040513d6000823e3d601f19601f82011682018060405250810190610a7891906124bb565b9050600080600190505b6001548111610b765760005b8351811015610b6257838181518110610ad0577f4e487b7100000000000000000000000000000000000000000000000000000000600052603260045260246000fd5b602002602001015173ffffffffffffffffffffffffffffffffffffffff1660008084815260200190815260200160002060040160009054906101000a900473ffffffffffffffffffffffffffffffffffffffff1673ffffffffffffffffffffffffffffffffffffffff161415610b4f578280610b4b90613529565b9350505b8080610b5a90613529565b915050610a8e565b508080610b6e90613529565b915050610a82565b5060008167ffffffffffffffff811115610bb9577f4e487b7100000000000000000000000000000000000000000000000000000000600052604160045260246000fd5b604051908082528060200260200182016040528015610bf257816020015b610bdf61223a565b815260200190600190039081610bd75790505b509050600080600190505b6001548111610efb5760005b8551811015610ee757858181518110610c4b577f4e487b7100000000000000000000000000000000000000000000000000000000600052603260045260246000fd5b602002602001015173ffffffffffffffffffffffffffffffffffffffff1660008084815260200190815260200160002060040160009054906101000a900473ffffffffffffffffffffffffffffffffffffffff1673ffffffffffffffffffffffffffffffffffffffff161415610ed4576000808381526020019081526020016000206040518060c001604052908160008201548152602001600182018054610cf2906134f7565b80601f0160208091040260200160405190810160405280929190818152602001828054610d1e906134f7565b8015610d6b5780601f10610d4057610100808354040283529160200191610d6b565b820191906000526020600020905b815481529060010190602001808311610d4e57829003601f168201915b50505050508152602001600282018054610d84906134f7565b80601f0160208091040260200160405190810160405280929190818152602001828054610db0906134f7565b8015610dfd5780601f10610dd257610100808354040283529160200191610dfd565b820191906000526020600020905b815481529060010190602001808311610de057829003601f168201915b50505050508152602001600382015481526020016004820160009054906101000a900473ffffffffffffffffffffffffffffffffffffffff1673ffffffffffffffffffffffffffffffffffffffff1673ffffffffffffffffffffffffffffffffffffffff1681526020016004820160149054906101000a900460ff161515151581525050848481518110610eba577f4e487b7100000000000000000000000000000000000000000000000000000000600052603260045260246000fd5b60200260200101819052508280610ed090613529565b9350505b8080610edf90613529565b915050610c09565b508080610ef390613529565b915050610bfd565b5081945050505050919050565b660110d9316ec000341015610f52576040517f08c379a0000000000000000000000000000000000000000000000000000000008152600401610f4990613017565b60405180910390fd5b655af3107a4000811015610f9b576040517f08c379a0000000000000000000000000000000000000000000000000000000008152600401610f9290613157565b60405180910390fd5b6000835111610fdf576040517f08c379a0000000000000000000000000000000000000000000000000000000008152600401610fd6906130f7565b60405180910390fd5b6000825111611023576040517f08c379a000000000000000000000000000000000000000000000000000000000815260040161101a90613097565b60405180910390fd5b6001600081548092919061103690613529565b91905055506040518060c0016040528060015481526020018481526020018381526020018281526020013373ffffffffffffffffffffffffffffffffffffffff1681526020016001151581525060008060015481526020019081526020016000206000820151816000015560208201518160010190805190602001906110bd929190612288565b5060408201518160020190805190602001906110da929190612288565b506060820151816003015560808201518160040160006101000a81548173ffffffffffffffffffffffffffffffffffffffff021916908373ffffffffffffffffffffffffffffffffffffffff16021790555060a08201518160040160146101000a81548160ff0219169083151502179055509050507f50ddb33d524faa8ed8f55b8a0f78344499688eb142329f246805cdb69cd1693160015484833360405161118694939291906132b8565b60405180910390a1505050565b6000600260009054906101000a900473ffffffffffffffffffffffffffffffffffffffff16905090565b60006060806000806000866000811180156111da57506001548111155b611219576040517f08c379a000000000000000000000000000000000000000000000000000000000815260040161121090613177565b60405180910390fd5b60008060008a81526020019081526020016000206040518060c001604052908160008201548152602001600182018054611252906134f7565b80601f016020809104026020016040519081016040528092919081815260200182805461127e906134f7565b80156112cb5780601f106112a0576101008083540402835291602001916112cb565b820191906000526020600020905b8154815290600101906020018083116112ae57829003601f168201915b505050505081526020016002820180546112e4906134f7565b80601f0160208091040260200160405190810160405280929190818152602001828054611310906134f7565b801561135d5780601f106113325761010080835404028352916020019161135d565b820191906000526020600020905b81548152906001019060200180831161134057829003601f168201915b50505050508152602001600382015481526020016004820160009054906101000a900473ffffffffffffffffffffffffffffffffffffffff1673ffffffffffffffffffffffffffffffffffffffff1673ffffffffffffffffffffffffffffffffffffffff1681526020016004820160149054906101000a900460ff1615151515815250509050806000015181602001518260400151836060015184608001518560a00151975097509750975097509750505091939550919395565b6000600154905090565b8160008111801561143557506001548111155b611474576040517f08c379a000000000000000000000000000000000000000000000000000000000815260040161146b90613177565b60405180910390fd5b6000600360009054906101000a900473ffffffffffffffffffffffffffffffffffffffff1673ffffffffffffffffffffffffffffffffffffffff16636f77926b60008085815260200190815260200160002060040160009054906101000a900473ffffffffffffffffffffffffffffffffffffffff166040518263ffffffff1660e01b81526004016115069190612ef4565b60006040518083038186803b15801561151e57600080fd5b505afa158015611532573d6000803e3d6000fd5b505050506040513d6000823e3d601f19601f8201168201806040525081019061155b919061257e565b5090506000600360009054906101000a900473ffffffffffffffffffffffffffffffffffffffff1673ffffffffffffffffffffffffffffffffffffffff16636f77926b336040518263ffffffff1660e01b81526004016115bb9190612ef4565b60006040518083038186803b1580156115d357600080fd5b505afa1580156115e7573d6000803e3d6000fd5b505050506040513d6000823e3d601f19601f82011682018060405250810190611610919061257e565b509050816040516020016116249190612ec8565b604051602081830303815290604052805190602001208160405160200161164b9190612ec8565b60405160208183030381529060405280519060200120146116a1576040517f08c379a000000000000000000000000000000000000000000000000000000000815260040161169890613057565b60405180910390fd5b846000811180156116b457506001548111155b6116f3576040517f08c379a00000000000000000000000000000000000000000000000000000000081526004016116ea90613177565b60405180910390fd5b60008511611736576040517f08c379a000000000000000000000000000000000000000000000000000000000815260040161172d90613077565b60405180910390fd5b600080600088815260200190815260200160002060030154905085600080898152602001908152602001600020600301819055507f5347c8ebc29d906b12476deeff61559bcb5ff3fd46e4dcf25b0a93539748738a87828860405161179d9392919061332d565b60405180910390a150505050505050565b660110d9316ec00081565b806000811180156117cc57506001548111155b61180b576040517f08c379a000000000000000000000000000000000000000000000000000000000815260040161180290613177565b60405180910390fd5b60008083815260200190815260200160002060040160149054906101000a900460ff1661186d576040517f08c379a000000000000000000000000000000000000000000000000000000000815260040161186490613137565b60405180910390fd5b600080838152602001908152602001600020600301543410156118c5576040517f08c379a00000000000000000000000000000000000000000000000000000000081526004016118bc90613117565b60405180910390fd5b3373ffffffffffffffffffffffffffffffffffffffff1660008084815260200190815260200160002060040160009054906101000a900473ffffffffffffffffffffffffffffffffffffffff1673ffffffffffffffffffffffffffffffffffffffff161415611969576040517f08c379a0000000000000000000000000000000000000000000000000000000008152600401611960906130d7565b60405180910390fd5b6000600360009054906101000a900473ffffffffffffffffffffffffffffffffffffffff1673ffffffffffffffffffffffffffffffffffffffff1663ce43c03260008086815260200190815260200160002060040160009054906101000a900473ffffffffffffffffffffffffffffffffffffffff166040518263ffffffff1660e01b81526004016119fb9190612ef4565b60006040518083038186803b158015611a1357600080fd5b505afa158015611a27573d6000803e3d6000fd5b505050506040513d6000823e3d601f19601f82011682018060405250810190611a50919061253d565b90506000600360009054906101000a900473ffffffffffffffffffffffffffffffffffffffff1673ffffffffffffffffffffffffffffffffffffffff16631ecc0041836040518263ffffffff1660e01b8152600401611aaf9190612f75565b60006040518083038186803b158015611ac757600080fd5b505afa158015611adb573d6000803e3d6000fd5b505050506040513d6000823e3d601f19601f82011682018060405250810190611b0491906124bb565b905060005b8151811015611bd4573373ffffffffffffffffffffffffffffffffffffffff16828281518110611b62577f4e487b7100000000000000000000000000000000000000000000000000000000600052603260045260246000fd5b602002602001015173ffffffffffffffffffffffffffffffffffffffff161415611bc1576040517f08c379a0000000000000000000000000000000000000000000000000000000008152600401611bb8906131b7565b60405180910390fd5b8080611bcc90613529565b915050611b09565b50600080600086815260200190815260200160002060040160009054906101000a900473ffffffffffffffffffffffffffffffffffffffff1690503360008087815260200190815260200160002060040160006101000a81548173ffffffffffffffffffffffffffffffffffffffff021916908373ffffffffffffffffffffffffffffffffffffffff160217905550600080600087815260200190815260200160002060040160146101000a81548160ff02191690831515021790555060008173ffffffffffffffffffffffffffffffffffffffff1634604051611cb790612edf565b60006040518083038185875af1925050503d8060008114611cf4576040519150601f19603f3d011682016040523d82523d6000602084013e611cf9565b606091505b5050905080611d3d576040517f08c379a0000000000000000000000000000000000000000000000000000000008152600401611d3490613197565b60405180910390fd5b7fbf4d92ef8429e8f41c7077e3a79df9c2021167c22d3d9331f6587faae788276086336000808a815260200190815260200160002060030154604051611d8593929190613212565b60405180910390a1505050505050565b600260009054906101000a900473ffffffffffffffffffffffffffffffffffffffff1681565b600081600081118015611dd057506001548111155b611e0f576040517f08c379a0000000000000000000000000000000000000000000000000000000008152600401611e0690613177565b60405180910390fd5b60008084815260200190815260200160002060040160149054906101000a900460ff16915050919050565b81600081118015611e4d57506001548111155b611e8c576040517f08c379a0000000000000000000000000000000000000000000000000000000008152600401611e8390613177565b60405180910390fd5b6000600360009054906101000a900473ffffffffffffffffffffffffffffffffffffffff1673ffffffffffffffffffffffffffffffffffffffff16636f77926b60008085815260200190815260200160002060040160009054906101000a900473ffffffffffffffffffffffffffffffffffffffff166040518263ffffffff1660e01b8152600401611f1e9190612ef4565b60006040518083038186803b158015611f3657600080fd5b505afa158015611f4a573d6000803e3d6000fd5b505050506040513d6000823e3d601f19601f82011682018060405250810190611f73919061257e565b5090506000600360009054906101000a900473ffffffffffffffffffffffffffffffffffffffff1673ffffffffffffffffffffffffffffffffffffffff16636f77926b336040518263ffffffff1660e01b8152600401611fd39190612ef4565b60006040518083038186803b158015611feb57600080fd5b505afa158015611fff573d6000803e3d6000fd5b505050506040513d6000823e3d601f19601f82011682018060405250810190612028919061257e565b5090508160405160200161203c9190612ec8565b60405160208183030381529060405280519060200120816040516020016120639190612ec8565b60405160208183030381529060405280519060200120146120b9576040517f08c379a00000000000000000000000000000000000000000000000000000000081526004016120b090613057565b60405180910390fd5b846000811180156120cc57506001548111155b61210b576040517f08c379a000000000000000000000000000000000000000000000000000000000815260040161210290613177565b60405180910390fd5b60008087815260200190815260200160002060040160149054906101000a900460ff161561216e576040517f08c379a000000000000000000000000000000000000000000000000000000000815260040161216590613037565b60405180910390fd5b600085116121b1576040517f08c379a00000000000000000000000000000000000000000000000000000000081526004016121a890612fd7565b60405180910390fd5b600160008088815260200190815260200160002060040160146101000a81548160ff02191690831515021790555084600080888152602001908152602001600020600301819055507f61aa86423780e41b79e9a0634ba3cb99a3b8fddcfc2e8505450102437c0c91e2868660405161222a929190613304565b60405180910390a1505050505050565b6040518060c0016040528060008152602001606081526020016060815260200160008152602001600073ffffffffffffffffffffffffffffffffffffffff1681526020016000151581525090565b828054612294906134f7565b90600052602060002090601f0160209004810192826122b657600085556122fd565b82601f106122cf57805160ff19168380011785556122fd565b828001600101855582156122fd579182015b828111156122fc5782518255916020019190600101906122e1565b5b50905061230a919061230e565b5090565b5b8082111561232757600081600090555060010161230f565b5090565b600061233e61233984613395565b613364565b9050808382526020820190508285602086028201111561235d57600080fd5b60005b8581101561238d57816123738882612413565b845260208401935060208301925050600181019050612360565b5050509392505050565b60006123aa6123a5846133c1565b613364565b9050828152602081018484840111156123c257600080fd5b6123cd8482856134b5565b509392505050565b60006123e86123e3846133c1565b613364565b90508281526020810184848401111561240057600080fd5b61240b8482856134c4565b509392505050565b60008151905061242281613610565b92915050565b600082601f83011261243957600080fd5b815161244984826020860161232b565b91505092915050565b600082601f83011261246357600080fd5b8135612473848260208601612397565b91505092915050565b600082601f83011261248d57600080fd5b815161249d8482602086016123d5565b91505092915050565b6000813590506124b581613627565b92915050565b6000602082840312156124cd57600080fd5b600082015167ffffffffffffffff8111156124e757600080fd5b6124f384828501612428565b91505092915050565b60006020828403121561250e57600080fd5b600082013567ffffffffffffffff81111561252857600080fd5b61253484828501612452565b91505092915050565b60006020828403121561254f57600080fd5b600082015167ffffffffffffffff81111561256957600080fd5b6125758482850161247c565b91505092915050565b6000806040838503121561259157600080fd5b600083015167ffffffffffffffff8111156125ab57600080fd5b6125b78582860161247c565b925050602083015167ffffffffffffffff8111156125d457600080fd5b6125e085828601612428565b9150509250929050565b6000806000606084860312156125ff57600080fd5b600084013567ffffffffffffffff81111561261957600080fd5b61262586828701612452565b935050602084013567ffffffffffffffff81111561264257600080fd5b61264e86828701612452565b925050604061265f868287016124a6565b9150509250925092565b60006020828403121561267b57600080fd5b6000612689848285016124a6565b91505092915050565b600080604083850312156126a557600080fd5b60006126b3858286016124a6565b92505060206126c4858286016124a6565b9150509250929050565b60006126da8383612e1a565b905092915050565b6126eb8161346d565b82525050565b6126fa8161346d565b82525050565b600061270b82613401565b6127158185613424565b935083602082028501612727856133f1565b8060005b85811015612763578484038952815161274485826126ce565b945061274f83613417565b925060208a0199505060018101905061272b565b50829750879550505050505092915050565b61277e8161347f565b82525050565b61278d8161347f565b82525050565b600061279e8261340c565b6127a88185613440565b93506127b88185602086016134c4565b6127c1816135ff565b840191505092915050565b60006127d78261340c565b6127e18185613451565b93506127f18185602086016134c4565b6127fa816135ff565b840191505092915050565b60006128108261340c565b61281a8185613462565b935061282a8185602086016134c4565b80840191505092915050565b6000612843601e83613451565b91507f596f7520617265206e6f742074686520636f6e7472616374206f776e657200006000830152602082019050919050565b6000612883602183613451565b91507f546869732063617264206973206e6f742063757272656e746c79206c6973746560008301527f64000000000000000000000000000000000000000000000000000000000000006020830152604082019050919050565b60006128e9601f83613451565b91507f5072696365206d7573742062652067726561746572207468616e207a65726f006000830152602082019050919050565b6000612929601483613451565b91507f4e6f2066756e647320746f2077697468647261770000000000000000000000006000830152602082019050919050565b6000612969601f83613451565b91507f496e73756666696369656e742066656520746f206372656174652063617264006000830152602082019050919050565b60006129a9601683613451565b91507f4361726420697320616c7265616479206c6973746564000000000000000000006000830152602082019050919050565b60006129e9602283613451565b91507f596f7520617265206e6f7420746865206f776e6572206f66207468697320636160008301527f72640000000000000000000000000000000000000000000000000000000000006020830152604082019050919050565b6000612a4f602383613451565b91507f4e6577207072696365206d7573742062652067726561746572207468616e207a60008301527f65726f00000000000000000000000000000000000000000000000000000000006020830152604082019050919050565b6000612ab5601983613451565b91507f4950465320686173682063616e6e6f7420626520656d707479000000000000006000830152602082019050919050565b6000612af5601f83613451565b91507f496e73756666696369656e742066656520746f2064656c6973742063617264006000830152602082019050919050565b6000612b35601c83613451565b91507f596f752063616e6e6f742062757920796f7572206f776e2063617264000000006000830152602082019050919050565b6000612b75601983613451565b91507f43617264206e616d652063616e6e6f7420626520656d707479000000000000006000830152602082019050919050565b6000612bb5602383613451565b91507f496e73756666696369656e742066756e647320746f206275792074686973206360008301527f61726400000000000000000000000000000000000000000000000000000000006020830152604082019050919050565b6000612c1b602083613451565b91507f546869732063617264206973206e6f74206c697374656420666f722073616c656000830152602082019050919050565b6000612c5b600083613435565b9150600082019050919050565b6000612c75602183613451565b91507f5072696365206d757374206265206174206c6561737420302e3030303120455460008301527f48000000000000000000000000000000000000000000000000000000000000006020830152604082019050919050565b6000612cdb601883613451565b91507f54686973206361726420646f6573206e6f7420657869737400000000000000006000830152602082019050919050565b6000612d1b602e83613451565b91507f4661696c656420746f207472616e736665722066756e647320746f207468652060008301527f70726576696f7573206f776e65720000000000000000000000000000000000006020830152604082019050919050565b6000612d81603183613451565b91507f596f752063616e6e6f74206275792063617264732066726f6d20796f7572206160008301527f73736f6369617465642077616c6c6574730000000000000000000000000000006020830152604082019050919050565b6000612de7601883613451565b91507f4661696c656420746f2077697468647261772066756e647300000000000000006000830152602082019050919050565b600060c083016000830151612e326000860182612eaa565b5060208301518482036020860152612e4a8282612793565b91505060408301518482036040860152612e648282612793565b9150506060830151612e796060860182612eaa565b506080830151612e8c60808601826126e2565b5060a0830151612e9f60a0860182612775565b508091505092915050565b612eb3816134ab565b82525050565b612ec2816134ab565b82525050565b6000612ed48284612805565b915081905092915050565b6000612eea82612c4e565b9150819050919050565b6000602082019050612f0960008301846126f1565b92915050565b6000604082019050612f2460008301856126f1565b612f316020830184612eb9565b9392505050565b60006020820190508181036000830152612f528184612700565b905092915050565b6000602082019050612f6f6000830184612784565b92915050565b60006020820190508181036000830152612f8f81846127cc565b905092915050565b60006020820190508181036000830152612fb081612836565b9050919050565b60006020820190508181036000830152612fd081612876565b9050919050565b60006020820190508181036000830152612ff0816128dc565b9050919050565b600060208201905081810360008301526130108161291c565b9050919050565b600060208201905081810360008301526130308161295c565b9050919050565b600060208201905081810360008301526130508161299c565b9050919050565b60006020820190508181036000830152613070816129dc565b9050919050565b6000602082019050818103600083015261309081612a42565b9050919050565b600060208201905081810360008301526130b081612aa8565b9050919050565b600060208201905081810360008301526130d081612ae8565b9050919050565b600060208201905081810360008301526130f081612b28565b9050919050565b6000602082019050818103600083015261311081612b68565b9050919050565b6000602082019050818103600083015261313081612ba8565b9050919050565b6000602082019050818103600083015261315081612c0e565b9050919050565b6000602082019050818103600083015261317081612c68565b9050919050565b6000602082019050818103600083015261319081612cce565b9050919050565b600060208201905081810360008301526131b081612d0e565b9050919050565b600060208201905081810360008301526131d081612d74565b9050919050565b600060208201905081810360008301526131f081612dda565b9050919050565b600060208201905061320c6000830184612eb9565b92915050565b60006060820190506132276000830186612eb9565b61323460208301856126f1565b6132416040830184612eb9565b949350505050565b600060c08201905061325e6000830189612eb9565b818103602083015261327081886127cc565b9050818103604083015261328481876127cc565b90506132936060830186612eb9565b6132a060808301856126f1565b6132ad60a0830184612784565b979650505050505050565b60006080820190506132cd6000830187612eb9565b81810360208301526132df81866127cc565b90506132ee6040830185612eb9565b6132fb60608301846126f1565b95945050505050565b60006040820190506133196000830185612eb9565b6133266020830184612eb9565b9392505050565b60006060820190506133426000830186612eb9565b61334f6020830185612eb9565b61335c6040830184612eb9565b949350505050565b6000604051905081810181811067ffffffffffffffff8211171561338b5761338a6135d0565b5b8060405250919050565b600067ffffffffffffffff8211156133b0576133af6135d0565b5b602082029050602081019050919050565b600067ffffffffffffffff8211156133dc576133db6135d0565b5b601f19601f8301169050602081019050919050565b6000819050602082019050919050565b600081519050919050565b600081519050919050565b6000602082019050919050565b600082825260208201905092915050565b600081905092915050565b600082825260208201905092915050565b600082825260208201905092915050565b600081905092915050565b60006134788261348b565b9050919050565b60008115159050919050565b600073ffffffffffffffffffffffffffffffffffffffff82169050919050565b6000819050919050565b82818337600083830152505050565b60005b838110156134e25780820151818401526020810190506134c7565b838111156134f1576000848401525b50505050565b6000600282049050600182168061350f57607f821691505b60208210811415613523576135226135a1565b5b50919050565b6000613534826134ab565b91507fffffffffffffffffffffffffffffffffffffffffffffffffffffffffffffffff82141561356757613566613572565b5b600182019050919050565b7f4e487b7100000000000000000000000000000000000000000000000000000000600052601160045260246000fd5b7f4e487b7100000000000000000000000000000000000000000000000000000000600052602260045260246000fd5b7f4e487b7100000000000000000000000000000000000000000000000000000000600052604160045260246000fd5b6000601f19601f8301169050919050565b6136198161346d565b811461362457600080fd5b50565b613630816134ab565b811461363b57600080fd5b5056fea26469706673582212209db9923743088ed49f6375e1c762d6ebe9ebf7498df1b8b3c3a3fcb9905ad09d64736f6c63430008000033",
  "immutableReferences": {},
  "source": "// SPDX-License-Identifier: MIT\npragma solidity ^0.8.0;\n\ninterface IUserRegistry {\n    function getUser(address walletAddress) external view returns (string memory username, address[] memory walletAddresses);\n    function getUsername(address walletAddress) external view returns (string memory);\n    function getWallets(string memory username) external view returns (address[] memory);\n}\n\ncontract CardMarketplace {\n    struct Card {\n        uint id;\n        string name;\n        string ipfsHash;\n        uint price;\n        address owner;\n        bool isListed;\n    }\n\n    mapping(uint => Card) private cards;\n    uint private totalCards;\n\n    address public contractOwner;\n    uint public constant FEE = 0.0003 ether;\n\n    IUserRegistry private userRegistry;\n\n    //Serie di eventi\n    event CardCreated(uint cardId, string name, uint price, address owner);\n    event CardListed(uint cardId, uint price);\n    event CardBought(uint cardId, address newOwner, uint price);\n    event CardDelisted(uint cardId);\n    event CardPriceUpdated(uint cardId, uint oldPrice, uint newPrice);\n    event FundsWithdrawn(address owner, uint amount);\n\n    //Serie di modificatori, Access Restriction Pattern\n    modifier onlyOwner(uint cardId) {\n        require(cardId > 0 && cardId <= totalCards, \"This card does not exist\");\n\n        (string memory cardOwnerUsername, ) = userRegistry.getUser(cards[cardId].owner);\n        (string memory callerUsername, ) = userRegistry.getUser(msg.sender);\n\n        require(\n            //String Equality Comparison Pattern\n            keccak256(abi.encodePacked(callerUsername)) == keccak256(abi.encodePacked(cardOwnerUsername)),\n            \"You are not the owner of this card\"\n        );\n\n        _;\n    }\n\n    modifier cardExists(uint cardId) {\n        require(cardId > 0 && cardId <= totalCards, \"This card does not exist\");\n        _;\n    }\n\n    modifier onlyContractOwner() {\n        require(msg.sender == contractOwner, \"You are not the contract owner\");\n        _;\n    }\n\n    //Design Pattern presenti, oltre quelli gi citati:\n    //Guard Check\n    //Checks Effects Interaction\n    //Secure Ether Transfer\n    //Pull over Push (solo per l'owner)\n    //Memory Array Building\n    //\n    constructor(address userRegistryAddress) {\n        contractOwner = msg.sender;\n        userRegistry = IUserRegistry(userRegistryAddress);\n    }\n\n    //Ritorna l'owner del contratto\n    function getOwner() external view returns (address) {\n        return contractOwner;\n    }\n    \n    //Crea una nuova carta da aggiungere alla blockchain\n    function createCard(string memory name, string memory ipfsHash, uint price) external payable {\n        require(msg.value >= FEE, \"Insufficient fee to create card\");\n        require(price >= 0.0001 ether, \"Price must be at least 0.0001 ETH\");\n        require(bytes(name).length > 0, \"Card name cannot be empty\");\n        require(bytes(ipfsHash).length > 0, \"IPFS hash cannot be empty\");\n\n        totalCards++;\n        cards[totalCards] = Card({\n            id: totalCards,\n            name: name,\n            ipfsHash: ipfsHash,\n            price: price,\n            owner: msg.sender,\n            isListed: true\n        });\n\n        emit CardCreated(totalCards, name, price, msg.sender);\n    }\n\n    //Setta una carta come listata\n    function listCard(uint cardId, uint price) external onlyOwner(cardId) cardExists(cardId) {\n        require(!cards[cardId].isListed, \"Card is already listed\");\n        require(price > 0, \"Price must be greater than zero\");\n\n        cards[cardId].isListed = true;\n        cards[cardId].price = price;\n\n        emit CardListed(cardId, price);\n    }\n\n    //Permette di comprare una carta\n    function buyCard(uint cardId) external payable cardExists(cardId) {\n        require(cards[cardId].isListed, \"This card is not listed for sale\");\n        require(msg.value >= cards[cardId].price, \"Insufficient funds to buy this card\");\n        require(cards[cardId].owner != msg.sender, \"You cannot buy your own card\");\n\n        // Controlla se l'acquirente  associato allo stesso username del proprietario\n        string memory sellerUsername = userRegistry.getUsername(cards[cardId].owner);\n        address[] memory associatedWallets = userRegistry.getWallets(sellerUsername);\n\n        for (uint i = 0; i < associatedWallets.length; i++) {\n            require(associatedWallets[i] != msg.sender, \"You cannot buy cards from your associated wallets\");\n        }\n\n        address previousOwner = cards[cardId].owner;\n\n        cards[cardId].owner = msg.sender;\n        cards[cardId].isListed = false;\n        (bool success, ) = previousOwner.call{value: msg.value}(\"\");\n        require(success, \"Failed to transfer funds to the previous owner\");\n\n        emit CardBought(cardId, msg.sender, cards[cardId].price);\n    }\n\n    //Setta una carta come delistata\n    function delistCard(uint cardId) external payable onlyOwner(cardId) cardExists(cardId) {\n        require(msg.value >= FEE, \"Insufficient fee to delist card\");\n        require(cards[cardId].isListed, \"This card is not currently listed\");\n\n        cards[cardId].isListed = false;\n\n        emit CardDelisted(cardId);\n    }\n\n    //Aggiorna il prezzo di una carta\n    function updateCardPrice(uint cardId, uint newPrice) external onlyOwner(cardId) cardExists(cardId) {\n        require(newPrice > 0, \"New price must be greater than zero\");\n        uint oldPrice = cards[cardId].price;\n        cards[cardId].price = newPrice;\n\n        emit CardPriceUpdated(cardId, oldPrice, newPrice);\n    }\n\n    //Prende il totale delle carte presenti sulla blockchain\n    function getTotalCards() external view returns (uint) {\n        return totalCards;\n    }\n\n    //Prende le info di una specifica carta\n    function getCard(uint cardId) external view cardExists(cardId) returns (\n        uint id,\n        string memory name,\n        string memory ipfsHash,\n        uint price,\n        address owner,\n        bool isListed\n    ) {\n        Card memory card = cards[cardId];\n        return (card.id, card.name, card.ipfsHash, card.price, card.owner, card.isListed);\n    }\n\n    //Ritorna un valore booleano controllando se la carta  listata\n    function isCardListed(uint cardId) external view cardExists(cardId) returns (bool) {\n        return cards[cardId].isListed;\n    }\n\n    //Ritorna il portprietario della carta\n    function getCardOwner(uint cardId) external view cardExists(cardId) returns (address) {\n        return cards[cardId].owner;\n    }\n\n    //Ritorna le carte di un utente specifico\n    function getCardsByUsername(string memory username) external view returns (Card[] memory) {\n        address[] memory wallets = userRegistry.getWallets(username);\n        uint count = 0;\n\n        for (uint i = 1; i <= totalCards; i++) {\n            for (uint j = 0; j < wallets.length; j++) {\n                if (cards[i].owner == wallets[j]) {\n                    count++;\n                }\n            }\n        }\n\n        Card[] memory userCards = new Card[](count);\n        uint index = 0;\n\n        for (uint i = 1; i <= totalCards; i++) {\n            for (uint j = 0; j < wallets.length; j++) {\n                if (cards[i].owner == wallets[j]) {\n                    userCards[index] = cards[i];\n                    index++;\n                }\n            }\n        }\n\n        return userCards;\n    }\n\n    //Permette di ritirare i fondi presenti nel contratto solo al proprietario di quest'ultimo\n    function withdrawFunds() external onlyContractOwner {\n        uint balance = address(this).balance;\n        require(balance > 0, \"No funds to withdraw\");\n\n        (bool success, ) = contractOwner.call{value: balance}(\"\");\n        require(success, \"Failed to withdraw funds\");\n\n        emit FundsWithdrawn(contractOwner, balance);\n    }\n}",
  "sourcePath": "/Users/deeecaaa/blockchain-card-marketplace/contracts/CardMarketplace.sol",
  "compiler": {
    "name": "solc",
    "version": "0.8.0+commit.c7dfd78e.Emscripten.clang"
  },
  "schemaVersion": "3.4.16",
  "updatedAt": "2025-01-15T16:56:44.518Z",
  "networkType": "ethereum",
  "devdoc": {
    "kind": "dev",
    "methods": {},
    "version": 1
  },
  "userdoc": {
    "kind": "user",
    "methods": {},
    "version": 1
  }
}