{
  "contractName": "UserRegistry",
  "abi": [
    {
      "anonymous": false,
      "inputs": [
        {
          "indexed": true,
          "internalType": "string",
          "name": "username",
          "type": "string"
        },
        {
          "indexed": true,
          "internalType": "address",
          "name": "walletAddress",
          "type": "address"
        }
      ],
      "name": "UserRegistered",
      "type": "event"
    },
    {
      "anonymous": false,
      "inputs": [
        {
          "indexed": true,
          "internalType": "string",
          "name": "username",
          "type": "string"
        },
        {
          "indexed": true,
          "internalType": "address",
          "name": "walletAddress",
          "type": "address"
        }
      ],
      "name": "WalletAdded",
      "type": "event"
    },
    {
      "inputs": [
        {
          "internalType": "address",
          "name": "",
          "type": "address"
        }
      ],
      "name": "walletToUsername",
      "outputs": [
        {
          "internalType": "string",
          "name": "",
          "type": "string"
        }
      ],
      "stateMutability": "view",
      "type": "function",
      "constant": true
    },
    {
      "inputs": [
        {
          "internalType": "string",
          "name": "username",
          "type": "string"
        }
      ],
      "name": "registerUser",
      "outputs": [],
      "stateMutability": "nonpayable",
      "type": "function"
    },
    {
      "inputs": [
        {
          "internalType": "address",
          "name": "walletAddress",
          "type": "address"
        }
      ],
      "name": "addWalletToUser",
      "outputs": [],
      "stateMutability": "nonpayable",
      "type": "function"
    },
    {
      "inputs": [
        {
          "internalType": "address",
          "name": "walletAddress",
          "type": "address"
        }
      ],
      "name": "isWalletRegistered",
      "outputs": [
        {
          "internalType": "bool",
          "name": "",
          "type": "bool"
        }
      ],
      "stateMutability": "view",
      "type": "function",
      "constant": true
    },
    {
      "inputs": [
        {
          "internalType": "string",
          "name": "username",
          "type": "string"
        }
      ],
      "name": "isUsernameTaken",
      "outputs": [
        {
          "internalType": "bool",
          "name": "",
          "type": "bool"
        }
      ],
      "stateMutability": "view",
      "type": "function",
      "constant": true
    },
    {
      "inputs": [
        {
          "internalType": "string",
          "name": "username",
          "type": "string"
        }
      ],
      "name": "getWallets",
      "outputs": [
        {
          "internalType": "address[]",
          "name": "",
          "type": "address[]"
        }
      ],
      "stateMutability": "view",
      "type": "function",
      "constant": true
    },
    {
      "inputs": [
        {
          "internalType": "address",
          "name": "walletAddress",
          "type": "address"
        }
      ],
      "name": "getUser",
      "outputs": [
        {
          "internalType": "string",
          "name": "username",
          "type": "string"
        },
        {
          "internalType": "address[]",
          "name": "walletAddresses",
          "type": "address[]"
        }
      ],
      "stateMutability": "view",
      "type": "function",
      "constant": true
    },
    {
      "inputs": [
        {
          "internalType": "address",
          "name": "walletAddress",
          "type": "address"
        }
      ],
      "name": "getUsername",
      "outputs": [
        {
          "internalType": "string",
          "name": "",
          "type": "string"
        }
      ],
      "stateMutability": "view",
      "type": "function",
      "constant": true
    }
  ],
  "bytecode": "0x608060405234801561001057600080fd5b50611468806100206000396000f3fe608060405234801561001057600080fd5b50600436106100885760003560e01c8063704f1b941161005b578063704f1b941461013a5780637f247e4914610156578063ba172cab14610186578063ce43c032146101b657610088565b8063176c59191461008d5780631ecc0041146100bd5780634ab07122146100ed5780636f77926b14610109575b600080fd5b6100a760048036038101906100a29190610e6d565b6101e6565b6040516100b49190611125565b60405180910390f35b6100d760048036038101906100d29190610e6d565b61021f565b6040516100e49190611103565b60405180910390f35b61010760048036038101906101029190610e44565b61033d565b005b610123600480360381019061011e9190610e44565b61060e565b604051610131929190611162565b60405180910390f35b610154600480360381019061014f9190610e6d565b610881565b005b610170600480360381019061016b9190610e44565b610b12565b60405161017d9190611125565b60405180910390f35b6101a0600480360381019061019b9190610e44565b610b69565b6040516101ad9190611140565b60405180910390f35b6101d060048036038101906101cb9190610e44565b610c09565b6040516101dd9190611140565b60405180910390f35b6000806000836040516101f991906110ec565b908152602001604051809103902060000180546102159061137a565b9050119050919050565b60606000808360405161023291906110ec565b9081526020016040518091039020600001805461024e9061137a565b905011610290576040517f08c379a000000000000000000000000000000000000000000000000000000000815260040161028790611199565b60405180910390fd5b6000826040516102a091906110ec565b908152602001604051809103902060010180548060200260200160405190810160405280929190818152602001828054801561033157602002820191906000526020600020905b8160009054906101000a900473ffffffffffffffffffffffffffffffffffffffff1673ffffffffffffffffffffffffffffffffffffffff16815260200190600101908083116102e7575b50505050509050919050565b6000600160003373ffffffffffffffffffffffffffffffffffffffff1673ffffffffffffffffffffffffffffffffffffffff16815260200190815260200160002080546103899061137a565b80601f01602080910402602001604051908101604052809291908181526020018280546103b59061137a565b80156104025780601f106103d757610100808354040283529160200191610402565b820191906000526020600020905b8154815290600101906020018083116103e557829003601f168201915b50505050509050600081511161044d576040517f08c379a000000000000000000000000000000000000000000000000000000000815260040161044490611199565b60405180910390fd5b6000600160008473ffffffffffffffffffffffffffffffffffffffff1673ffffffffffffffffffffffffffffffffffffffff16815260200190815260200160002080546104999061137a565b9050146104db576040517f08c379a00000000000000000000000000000000000000000000000000000000081526004016104d2906111f9565b60405180910390fd5b6000816040516104eb91906110ec565b9081526020016040518091039020600101829080600181540180825580915050600190039060005260206000200160009091909190916101000a81548173ffffffffffffffffffffffffffffffffffffffff021916908373ffffffffffffffffffffffffffffffffffffffff16021790555080600160008473ffffffffffffffffffffffffffffffffffffffff1673ffffffffffffffffffffffffffffffffffffffff16815260200190815260200160002090805190602001906105b0929190610d24565b508173ffffffffffffffffffffffffffffffffffffffff16816040516105d691906110ec565b60405180910390207ffabe7e435e3324aed068eca62c812363c2e8dbd4b4127a2ac62b1b41da76100d60405160405180910390a35050565b6060806000600160008573ffffffffffffffffffffffffffffffffffffffff1673ffffffffffffffffffffffffffffffffffffffff168152602001908152602001600020805461065d9061137a565b80601f01602080910402602001604051908101604052809291908181526020018280546106899061137a565b80156106d65780601f106106ab576101008083540402835291602001916106d6565b820191906000526020600020905b8154815290600101906020018083116106b957829003601f168201915b505050505090506000815111610721576040517f08c379a0000000000000000000000000000000000000000000000000000000008152600401610718906111d9565b60405180910390fd5b60008160405161073191906110ec565b908152602001604051809103902060000160008260405161075291906110ec565b908152602001604051809103902060010181805461076f9061137a565b80601f016020809104026020016040519081016040528092919081815260200182805461079b9061137a565b80156107e85780601f106107bd576101008083540402835291602001916107e8565b820191906000526020600020905b8154815290600101906020018083116107cb57829003601f168201915b505050505091508080548060200260200160405190810160405280929190818152602001828054801561087057602002820191906000526020600020905b8160009054906101000a900473ffffffffffffffffffffffffffffffffffffffff1673ffffffffffffffffffffffffffffffffffffffff1681526020019060010190808311610826575b505050505090509250925050915091565b6000815111801561089457506014815111155b6108d3576040517f08c379a00000000000000000000000000000000000000000000000000000000081526004016108ca90611219565b60405180910390fd5b6108dc816101e6565b1561091c576040517f08c379a0000000000000000000000000000000000000000000000000000000008152600401610913906111b9565b60405180910390fd5b6000600160003373ffffffffffffffffffffffffffffffffffffffff1673ffffffffffffffffffffffffffffffffffffffff16815260200190815260200160002080546109689061137a565b9050146109aa576040517f08c379a00000000000000000000000000000000000000000000000000000000081526004016109a1906111f9565b60405180910390fd5b806000826040516109bb91906110ec565b908152602001604051809103902060000190805190602001906109df929190610d24565b506000816040516109f091906110ec565b9081526020016040518091039020600101339080600181540180825580915050600190039060005260206000200160009091909190916101000a81548173ffffffffffffffffffffffffffffffffffffffff021916908373ffffffffffffffffffffffffffffffffffffffff16021790555080600160003373ffffffffffffffffffffffffffffffffffffffff1673ffffffffffffffffffffffffffffffffffffffff1681526020019081526020016000209080519060200190610ab5929190610d24565b503373ffffffffffffffffffffffffffffffffffffffff1681604051610adb91906110ec565b60405180910390207f7f605d0ff47d2a070e456b69ce2a36041788910b64443c7f4c6d307993cade2c60405160405180910390a350565b600080600160008473ffffffffffffffffffffffffffffffffffffffff1673ffffffffffffffffffffffffffffffffffffffff1681526020019081526020016000208054610b5f9061137a565b9050119050919050565b60016020528060005260406000206000915090508054610b889061137a565b80601f0160208091040260200160405190810160405280929190818152602001828054610bb49061137a565b8015610c015780601f10610bd657610100808354040283529160200191610c01565b820191906000526020600020905b815481529060010190602001808311610be457829003601f168201915b505050505081565b60606000600160008473ffffffffffffffffffffffffffffffffffffffff1673ffffffffffffffffffffffffffffffffffffffff1681526020019081526020016000208054610c579061137a565b80601f0160208091040260200160405190810160405280929190818152602001828054610c839061137a565b8015610cd05780601f10610ca557610100808354040283529160200191610cd0565b820191906000526020600020905b815481529060010190602001808311610cb357829003601f168201915b505050505090506000815111610d1b576040517f08c379a0000000000000000000000000000000000000000000000000000000008152600401610d12906111d9565b60405180910390fd5b80915050919050565b828054610d309061137a565b90600052602060002090601f016020900481019282610d525760008555610d99565b82601f10610d6b57805160ff1916838001178555610d99565b82800160010185558215610d99579182015b82811115610d98578251825591602001919060010190610d7d565b5b509050610da69190610daa565b5090565b5b80821115610dc3576000816000905550600101610dab565b5090565b6000610dda610dd58461126a565b611239565b905082815260208101848484011115610df257600080fd5b610dfd848285611338565b509392505050565b600081359050610e148161141b565b92915050565b600082601f830112610e2b57600080fd5b8135610e3b848260208601610dc7565b91505092915050565b600060208284031215610e5657600080fd5b6000610e6484828501610e05565b91505092915050565b600060208284031215610e7f57600080fd5b600082013567ffffffffffffffff811115610e9957600080fd5b610ea584828501610e1a565b91505092915050565b6000610eba8383610ec6565b60208301905092915050565b610ecf816112fa565b82525050565b6000610ee0826112aa565b610eea81856112cd565b9350610ef58361129a565b8060005b83811015610f26578151610f0d8882610eae565b9750610f18836112c0565b925050600181019050610ef9565b5085935050505092915050565b610f3c8161130c565b82525050565b6000610f4d826112b5565b610f5781856112de565b9350610f67818560208601611347565b610f708161140a565b840191505092915050565b6000610f86826112b5565b610f9081856112ef565b9350610fa0818560208601611347565b80840191505092915050565b6000610fb96013836112de565b91507f55736572206e6f742072656769737465726564000000000000000000000000006000830152602082019050919050565b6000610ff96016836112de565b91507f557365726e616d6520616c72656164792074616b656e000000000000000000006000830152602082019050919050565b60006110396015836112de565b91507f57616c6c6574206e6f74207265676973746572656400000000000000000000006000830152602082019050919050565b60006110796019836112de565b91507f57616c6c657420616c72656164792072656769737465726564000000000000006000830152602082019050919050565b60006110b96010836112de565b91507f496e76616c696420757365726e616d65000000000000000000000000000000006000830152602082019050919050565b60006110f88284610f7b565b915081905092915050565b6000602082019050818103600083015261111d8184610ed5565b905092915050565b600060208201905061113a6000830184610f33565b92915050565b6000602082019050818103600083015261115a8184610f42565b905092915050565b6000604082019050818103600083015261117c8185610f42565b905081810360208301526111908184610ed5565b90509392505050565b600060208201905081810360008301526111b281610fac565b9050919050565b600060208201905081810360008301526111d281610fec565b9050919050565b600060208201905081810360008301526111f28161102c565b9050919050565b600060208201905081810360008301526112128161106c565b9050919050565b60006020820190508181036000830152611232816110ac565b9050919050565b6000604051905081810181811067ffffffffffffffff821117156112605761125f6113db565b5b8060405250919050565b600067ffffffffffffffff821115611285576112846113db565b5b601f19601f8301169050602081019050919050565b6000819050602082019050919050565b600081519050919050565b600081519050919050565b6000602082019050919050565b600082825260208201905092915050565b600082825260208201905092915050565b600081905092915050565b600061130582611318565b9050919050565b60008115159050919050565b600073ffffffffffffffffffffffffffffffffffffffff82169050919050565b82818337600083830152505050565b60005b8381101561136557808201518184015260208101905061134a565b83811115611374576000848401525b50505050565b6000600282049050600182168061139257607f821691505b602082108114156113a6576113a56113ac565b5b50919050565b7f4e487b7100000000000000000000000000000000000000000000000000000000600052602260045260246000fd5b7f4e487b7100000000000000000000000000000000000000000000000000000000600052604160045260246000fd5b6000601f19601f8301169050919050565b611424816112fa565b811461142f57600080fd5b5056fea26469706673582212208a78037647e4c46272f1009cb7e3ea99bb4a742e0558af991cdebc26dd65743364736f6c63430008000033",
  "immutableReferences": {},
  "source": "// SPDX-License-Identifier: MIT\npragma solidity ^0.8.0;\n\ncontract UserRegistry {\n    struct User {\n        string username;\n        address[] walletAddresses;\n    }\n\n    mapping(string => User) private users; // Mappa username agli utenti\n    mapping(address => string) public walletToUsername; // Mappa portafogli al rispettivo username\n\n    event UserRegistered(string indexed username, address indexed walletAddress);\n    event WalletAdded(string indexed username, address indexed walletAddress);\n\n    // Funzione per registrare un nuovo utente\n    function registerUser(string memory username) public {\n        require(bytes(username).length > 0 && bytes(username).length <= 20, \"Invalid username\");\n        require(!isUsernameTaken(username), \"Username already taken\");\n        require(bytes(walletToUsername[msg.sender]).length == 0, \"Wallet already registered\");\n\n        users[username].username = username;\n        users[username].walletAddresses.push(msg.sender);\n        walletToUsername[msg.sender] = username;\n\n        emit UserRegistered(username, msg.sender);\n    }\n\n    // Aggiunge un portafoglio a un utente esistente\n    function addWalletToUser(address walletAddress) public {\n        string memory username = walletToUsername[msg.sender];\n        require(bytes(username).length > 0, \"User not registered\");\n        require(bytes(walletToUsername[walletAddress]).length == 0, \"Wallet already registered\");\n\n        users[username].walletAddresses.push(walletAddress);\n        walletToUsername[walletAddress] = username;\n\n        emit WalletAdded(username, walletAddress);\n    }\n\n    // Controlla se un portafoglio  registrato\n    function isWalletRegistered(address walletAddress) public view returns (bool) {\n        return bytes(walletToUsername[walletAddress]).length > 0;\n    }\n\n    // Verifica se uno username  gi registrato\n    function isUsernameTaken(string memory username) public view returns (bool) {\n        return bytes(users[username].username).length > 0;\n    }\n\n    // Recuperare tutti i portafogli associati a un utente\n    function getWallets(string memory username) public view returns (address[] memory) {\n        require(bytes(users[username].username).length > 0, \"User not registered\");\n        return users[username].walletAddresses;\n    }\n\n    // Recupera i dati di un utente tramite l'indirizzo del wallet\n    function getUser(address walletAddress) public view returns (string memory username, address[] memory walletAddresses) {\n        string memory user = walletToUsername[walletAddress];\n        require(bytes(user).length > 0, \"Wallet not registered\");\n        return (users[user].username, users[user].walletAddresses);\n    }\n\n    // Funzione per ottenere solo il nome utente tramite l'indirizzo del wallet\n    function getUsername(address walletAddress) public view returns (string memory) {\n        string memory username = walletToUsername[walletAddress];\n        require(bytes(username).length > 0, \"Wallet not registered\");\n        return username;\n    }\n}",
  "sourcePath": "/Users/deeecaaa/blockchain-card-marketplace/contracts/UserRegistry.sol",
  "compiler": {
    "name": "solc",
    "version": "0.8.0+commit.c7dfd78e.Emscripten.clang"
  },
  "schemaVersion": "3.4.16",
  "updatedAt": "2025-01-15T16:41:28.350Z",
  "networkType": "ethereum",
  "devdoc": {
    "kind": "dev",
    "methods": {},
    "version": 1
  },
  "userdoc": {
    "kind": "user",
    "methods": {},
    "version": 1
  }
}